{
  "contractName": "ChainList",
  "abi": [
    {
      "anonymous": false,
      "inputs": [
        {
          "indexed": true,
          "internalType": "uint256",
          "name": "_id",
          "type": "uint256"
        },
        {
          "indexed": true,
          "internalType": "address",
          "name": "_seller",
          "type": "address"
        },
        {
          "indexed": true,
          "internalType": "address",
          "name": "_buyer",
          "type": "address"
        },
        {
          "indexed": false,
          "internalType": "string",
          "name": "_name",
          "type": "string"
        },
        {
          "indexed": false,
          "internalType": "uint256",
          "name": "_price",
          "type": "uint256"
        }
      ],
      "name": "LogBuyArticle",
      "type": "event"
    },
    {
      "anonymous": false,
      "inputs": [
        {
          "indexed": true,
          "internalType": "uint256",
          "name": "_id",
          "type": "uint256"
        },
        {
          "indexed": true,
          "internalType": "address",
          "name": "_seller",
          "type": "address"
        },
        {
          "indexed": false,
          "internalType": "string",
          "name": "_name",
          "type": "string"
        },
        {
          "indexed": false,
          "internalType": "uint256",
          "name": "_price",
          "type": "uint256"
        }
      ],
      "name": "LogSellArticle",
      "type": "event"
    },
    {
      "inputs": [
        {
          "internalType": "uint256",
          "name": "",
          "type": "uint256"
        }
      ],
      "name": "articles",
      "outputs": [
        {
          "internalType": "uint256",
          "name": "id",
          "type": "uint256"
        },
        {
          "internalType": "address",
          "name": "seller",
          "type": "address"
        },
        {
          "internalType": "address",
          "name": "buyer",
          "type": "address"
        },
        {
          "internalType": "string",
          "name": "name",
          "type": "string"
        },
        {
          "internalType": "string",
          "name": "desciption",
          "type": "string"
        },
        {
          "internalType": "string",
          "name": "fileHash",
          "type": "string"
        },
        {
          "internalType": "uint256",
          "name": "price",
          "type": "uint256"
        }
      ],
      "stateMutability": "view",
      "type": "function",
      "constant": true
    },
    {
      "inputs": [
        {
          "internalType": "string",
          "name": "_name",
          "type": "string"
        },
        {
          "internalType": "string",
          "name": "_desciption",
          "type": "string"
        },
        {
          "internalType": "string",
          "name": "_fileHash",
          "type": "string"
        },
        {
          "internalType": "uint256",
          "name": "_price",
          "type": "uint256"
        }
      ],
      "name": "sellArticle",
      "outputs": [],
      "stateMutability": "nonpayable",
      "type": "function"
    },
    {
      "inputs": [
        {
          "internalType": "uint256",
          "name": "_id",
          "type": "uint256"
        }
      ],
      "name": "buyArticle",
      "outputs": [],
      "stateMutability": "payable",
      "type": "function",
      "payable": true
    },
    {
      "inputs": [],
      "name": "getNumberOfArticles",
      "outputs": [
        {
          "internalType": "uint256",
          "name": "",
          "type": "uint256"
        }
      ],
      "stateMutability": "view",
      "type": "function",
      "constant": true
    },
    {
      "inputs": [],
      "name": "getAllArticles",
      "outputs": [
        {
          "internalType": "uint256[]",
          "name": "",
          "type": "uint256[]"
        }
      ],
      "stateMutability": "view",
      "type": "function",
      "constant": true
    }
  ],
  "bytecode": "0x608060405234801561001057600080fd5b50336000806101000a81548173ffffffffffffffffffffffffffffffffffffffff021916908373ffffffffffffffffffffffffffffffffffffffff16021790555061140b806100606000396000f3fe60806040526004361061004a5760003560e01c80631cc4baa81461004f57806389da85d31461006b578063b44d310b14610096578063b841d93e146100c1578063edcfafe6146100ea575b600080fd5b61006960048036038101906100649190610a9e565b61012d565b005b34801561007757600080fd5b506100806103a0565b60405161008d9190610ada565b60405180910390f35b3480156100a257600080fd5b506100ab6103aa565b6040516100b89190610bb3565b60405180910390f35b3480156100cd57600080fd5b506100e860048036038101906100e39190610d1b565b610513565b005b3480156100f657600080fd5b50610111600480360381019061010c9190610a9e565b6106fb565b6040516101249796959493929190610e96565b60405180910390f35b60006002541161013c57600080fd5b60008111801561014e57506002548111155b61015757600080fd5b6000600160008381526020019081526020016000209050600073ffffffffffffffffffffffffffffffffffffffff168160020160009054906101000a900473ffffffffffffffffffffffffffffffffffffffff1673ffffffffffffffffffffffffffffffffffffffff16146101cb57600080fd5b8060010160009054906101000a900473ffffffffffffffffffffffffffffffffffffffff1673ffffffffffffffffffffffffffffffffffffffff163373ffffffffffffffffffffffffffffffffffffffff160361022757600080fd5b8060060154341461023757600080fd5b338160020160006101000a81548173ffffffffffffffffffffffffffffffffffffffff021916908373ffffffffffffffffffffffffffffffffffffffff1602179055508060010160009054906101000a900473ffffffffffffffffffffffffffffffffffffffff1673ffffffffffffffffffffffffffffffffffffffff166108fc349081150290604051600060405180830381858888f193505050501580156102e4573d6000803e3d6000fd5b508060020160009054906101000a900473ffffffffffffffffffffffffffffffffffffffff1673ffffffffffffffffffffffffffffffffffffffff168160010160009054906101000a900473ffffffffffffffffffffffffffffffffffffffff1673ffffffffffffffffffffffffffffffffffffffff16837f5d28bc06e6f0c45405abfe77bd77236c767f9bd9d044ae2d954a415a2b4823e0846003018560060154604051610394929190611013565b60405180910390a45050565b6000600254905090565b6060600060025467ffffffffffffffff8111156103ca576103c9610bf0565b5b6040519080825280602002602001820160405280156103f85781602001602082028036833780820191505090505b509050600080600190505b600254811161046357600160008281526020019081526020016000206000015483838151811061043657610435611043565b5b602002602001018181525050818061044d906110a1565b925050808061045b906110a1565b915050610403565b5060008167ffffffffffffffff8111156104805761047f610bf0565b5b6040519080825280602002602001820160405280156104ae5781602001602082028036833780820191505090505b50905060005b82811015610509578381815181106104cf576104ce611043565b5b60200260200101518282815181106104ea576104e9611043565b5b6020026020010181815250508080610501906110a1565b9150506104b4565b5080935050505090565b6000151561052083610915565b15151461052c57600080fd5b6002600081548092919061053f906110a1565b91905055506040518060e0016040528060025481526020013373ffffffffffffffffffffffffffffffffffffffff168152602001600073ffffffffffffffffffffffffffffffffffffffff168152602001858152602001848152602001838152602001828152506001600060025481526020019081526020016000206000820151816000015560208201518160010160006101000a81548173ffffffffffffffffffffffffffffffffffffffff021916908373ffffffffffffffffffffffffffffffffffffffff16021790555060408201518160020160006101000a81548173ffffffffffffffffffffffffffffffffffffffff021916908373ffffffffffffffffffffffffffffffffffffffff16021790555060608201518160030190816106689190611280565b50608082015181600401908161067e9190611280565b5060a08201518160050190816106949190611280565b5060c082015181600601559050503373ffffffffffffffffffffffffffffffffffffffff166002547fe2ebb0c522a8b90a93f45a5dfd3c0e0516b81519fdf199efe51c474642fe8cec86846040516106ed929190611352565b60405180910390a350505050565b60016020528060005260406000206000915090508060000154908060010160009054906101000a900473ffffffffffffffffffffffffffffffffffffffff16908060020160009054906101000a900473ffffffffffffffffffffffffffffffffffffffff169080600301805461077090610f49565b80601f016020809104026020016040519081016040528092919081815260200182805461079c90610f49565b80156107e95780601f106107be576101008083540402835291602001916107e9565b820191906000526020600020905b8154815290600101906020018083116107cc57829003601f168201915b5050505050908060040180546107fe90610f49565b80601f016020809104026020016040519081016040528092919081815260200182805461082a90610f49565b80156108775780601f1061084c57610100808354040283529160200191610877565b820191906000526020600020905b81548152906001019060200180831161085a57829003601f168201915b50505050509080600501805461088c90610f49565b80601f01602080910402602001604051908101604052809291908181526020018280546108b890610f49565b80156109055780601f106108da57610100808354040283529160200191610905565b820191906000526020600020905b8154815290600101906020018083116108e857829003601f168201915b5050505050908060060154905087565b600080600090505b60025481116109f0576109ce60016000838152602001908152602001600020600501805461094a90610f49565b80601f016020809104026020016040519081016040528092919081815260200182805461097690610f49565b80156109c35780601f10610998576101008083540402835291602001916109c3565b820191906000526020600020905b8154815290600101906020018083116109a657829003601f168201915b5050505050846109fb565b156109dd5760019150506109f6565b80806109e8906110a1565b91505061091d565b50600090505b919050565b600081604051602001610a0e91906113be565b6040516020818303038152906040528051906020012083604051602001610a3591906113be565b6040516020818303038152906040528051906020012014905092915050565b6000604051905090565b600080fd5b600080fd5b6000819050919050565b610a7b81610a68565b8114610a8657600080fd5b50565b600081359050610a9881610a72565b92915050565b600060208284031215610ab457610ab3610a5e565b5b6000610ac284828501610a89565b91505092915050565b610ad481610a68565b82525050565b6000602082019050610aef6000830184610acb565b92915050565b600081519050919050565b600082825260208201905092915050565b6000819050602082019050919050565b610b2a81610a68565b82525050565b6000610b3c8383610b21565b60208301905092915050565b6000602082019050919050565b6000610b6082610af5565b610b6a8185610b00565b9350610b7583610b11565b8060005b83811015610ba6578151610b8d8882610b30565b9750610b9883610b48565b925050600181019050610b79565b5085935050505092915050565b60006020820190508181036000830152610bcd8184610b55565b905092915050565b600080fd5b600080fd5b6000601f19601f8301169050919050565b7f4e487b7100000000000000000000000000000000000000000000000000000000600052604160045260246000fd5b610c2882610bdf565b810181811067ffffffffffffffff82111715610c4757610c46610bf0565b5b80604052505050565b6000610c5a610a54565b9050610c668282610c1f565b919050565b600067ffffffffffffffff821115610c8657610c85610bf0565b5b610c8f82610bdf565b9050602081019050919050565b82818337600083830152505050565b6000610cbe610cb984610c6b565b610c50565b905082815260208101848484011115610cda57610cd9610bda565b5b610ce5848285610c9c565b509392505050565b600082601f830112610d0257610d01610bd5565b5b8135610d12848260208601610cab565b91505092915050565b60008060008060808587031215610d3557610d34610a5e565b5b600085013567ffffffffffffffff811115610d5357610d52610a63565b5b610d5f87828801610ced565b945050602085013567ffffffffffffffff811115610d8057610d7f610a63565b5b610d8c87828801610ced565b935050604085013567ffffffffffffffff811115610dad57610dac610a63565b5b610db987828801610ced565b9250506060610dca87828801610a89565b91505092959194509250565b600073ffffffffffffffffffffffffffffffffffffffff82169050919050565b6000610e0182610dd6565b9050919050565b610e1181610df6565b82525050565b600081519050919050565b600082825260208201905092915050565b60005b83811015610e51578082015181840152602081019050610e36565b60008484015250505050565b6000610e6882610e17565b610e728185610e22565b9350610e82818560208601610e33565b610e8b81610bdf565b840191505092915050565b600060e082019050610eab600083018a610acb565b610eb86020830189610e08565b610ec56040830188610e08565b8181036060830152610ed78187610e5d565b90508181036080830152610eeb8186610e5d565b905081810360a0830152610eff8185610e5d565b9050610f0e60c0830184610acb565b98975050505050505050565b7f4e487b7100000000000000000000000000000000000000000000000000000000600052602260045260246000fd5b60006002820490506001821680610f6157607f821691505b602082108103610f7457610f73610f1a565b5b50919050565b60008190508160005260206000209050919050565b60008154610f9c81610f49565b610fa68186610e22565b94506001821660008114610fc15760018114610fd75761100a565b60ff19831686528115156020028601935061100a565b610fe085610f7a565b60005b8381101561100257815481890152600182019150602081019050610fe3565b808801955050505b50505092915050565b6000604082019050818103600083015261102d8185610f8f565b905061103c6020830184610acb565b9392505050565b7f4e487b7100000000000000000000000000000000000000000000000000000000600052603260045260246000fd5b7f4e487b7100000000000000000000000000000000000000000000000000000000600052601160045260246000fd5b60006110ac82610a68565b91507fffffffffffffffffffffffffffffffffffffffffffffffffffffffffffffffff82036110de576110dd611072565b5b600182019050919050565b60006020601f8301049050919050565b600082821b905092915050565b6000600883026111367fffffffffffffffffffffffffffffffffffffffffffffffffffffffffffffffff826110f9565b61114086836110f9565b95508019841693508086168417925050509392505050565b6000819050919050565b600061117d61117861117384610a68565b611158565b610a68565b9050919050565b6000819050919050565b61119783611162565b6111ab6111a382611184565b848454611106565b825550505050565b600090565b6111c06111b3565b6111cb81848461118e565b505050565b5b818110156111ef576111e46000826111b8565b6001810190506111d1565b5050565b601f8211156112345761120581610f7a565b61120e846110e9565b8101602085101561121d578190505b611231611229856110e9565b8301826111d0565b50505b505050565b600082821c905092915050565b600061125760001984600802611239565b1980831691505092915050565b60006112708383611246565b9150826002028217905092915050565b61128982610e17565b67ffffffffffffffff8111156112a2576112a1610bf0565b5b6112ac8254610f49565b6112b78282856111f3565b600060209050601f8311600181146112ea57600084156112d8578287015190505b6112e28582611264565b86555061134a565b601f1984166112f886610f7a565b60005b82811015611320578489015182556001820191506020850194506020810190506112fb565b8683101561133d5784890151611339601f891682611246565b8355505b6001600288020188555050505b505050505050565b6000604082019050818103600083015261136c8185610e5d565b905061137b6020830184610acb565b9392505050565b600081905092915050565b600061139882610e17565b6113a28185611382565b93506113b2818560208601610e33565b80840191505092915050565b60006113ca828461138d565b91508190509291505056fea264697066735822122024bb0ea121b5950785a2fb49420dd799de2a624b9611252cb3753faea66290b364736f6c63430008130033",
  "immutableReferences": {},
  "source": "// SPDX-License-Identifier: UNLICENSED\npragma solidity >=0.5.0;\nimport \"./Ownable.sol\";\n\ncontract ChainList is Ownable {\n    // state variable\n    struct Article {\n        uint256 id;\n        address seller;\n        address buyer;\n        string name;\n        string desciption;\n        string fileHash;\n        uint256 price;\n    }\n\n    mapping(uint256 => Article) public articles;\n    uint256 articlesCounter;\n\n    event LogSellArticle(\n        uint256 indexed _id,\n        address indexed _seller,\n        string _name,\n        uint256 _price\n    );\n\n    event LogBuyArticle(\n        uint256 indexed _id,\n        address indexed _seller,\n        address indexed _buyer,\n        string _name,\n        uint256 _price\n    );\n\n    //sell an article\n    function sellArticle(\n        string memory _name,\n        string memory _desciption,\n        string memory _fileHash,\n        uint256 _price\n    ) public {\n        require(checkHash(_fileHash) == false);\n        articlesCounter++;\n\n        articles[articlesCounter] = Article(\n            articlesCounter,\n            msg.sender,\n            address(0x0),\n            _name,\n            _desciption,\n            _fileHash,\n            _price\n        );\n\n        emit LogSellArticle(articlesCounter, msg.sender, _name, _price);\n    }\n\n    function buyArticle(uint256 _id) public payable {\n        require(articlesCounter > 0);\n\n        require(_id > 0 && _id <= articlesCounter);\n\n        Article storage article = articles[_id];\n\n        require(article.buyer == address(0x0));\n\n        require(msg.sender != article.seller);\n\n        require(msg.value == article.price);\n\n        article.buyer = msg.sender;\n\n        payable(article.seller).transfer(msg.value);\n\n        emit LogBuyArticle(\n            _id,\n            article.seller,\n            article.buyer,\n            article.name,\n            article.price\n        );\n    }\n\n    function getNumberOfArticles() public view returns (uint256) {\n        return articlesCounter;\n    }\n\n    function getAllArticles() public view returns (uint256[] memory) {\n        uint256[] memory articlesIds = new uint256[](articlesCounter);\n\n        uint256 numberOfArticlesForSale = 0;\n\n        for (uint256 i = 1; i <= articlesCounter; i++) {\n            articlesIds[numberOfArticlesForSale] = articles[i].id;\n            numberOfArticlesForSale++;\n        }\n\n        // copy to smaller array\n        uint256[] memory forSale = new uint256[](numberOfArticlesForSale);\n        for (uint256 i = 0; i < numberOfArticlesForSale; i++) {\n            forSale[i] = articlesIds[i];\n        }\n\n        return forSale;\n    }\n\n    function checkHash(string memory _fileHash) private view returns (bool) {\n        for (uint256 i = 0; i <= articlesCounter; i++) {\n            if (compareStrings(articles[i].fileHash, _fileHash)) {\n                return true;\n            }\n        }\n\n        return false;\n    }\n\n    function compareStrings(\n        string memory a,\n        string memory b\n    ) private pure returns (bool) {\n        return (keccak256(abi.encodePacked((a))) ==\n            keccak256(abi.encodePacked((b))));\n    }\n}\n",
  "sourcePath": "/home/parallel_user/Documents/vanet-blockchain/contracts/ChainList.sol",
  "compiler": {
    "name": "solc",
    "version": "0.8.19+commit.7dd6d404.Emscripten.clang"
  },
  "schemaVersion": "3.4.13",
  "updatedAt": "2023-05-18T08:32:43.932Z",
  "networkType": "ethereum",
  "devdoc": {
    "kind": "dev",
    "methods": {},
    "version": 1
  },
  "userdoc": {
    "kind": "user",
    "methods": {},
    "version": 1
  }
}